:040000006F20C0129B
:10000400000000000000000090000020A402002076
:10001400A9BDF9F55C030020000000000000000009
:100024005C0300209000002000000000000000009D
:10003400900000200000000090000020000000005C
:10004400FC0300209000002090000020900000207D
:1000540090000020180A0020D803002000000000AF
:1000640090000020900000209000002090000020CC
:10007400C203002090000020900000209000002087
:1000840090000020900000209000002090000020AC
:1000940001A04111B7170040985F3AC6945F3247F8
:1000A400E39CE6FE3245410182800111130780087A
:1000B400F337078093F787083EC201000100B717A2
:1000C4000040930570052380B704130680FA23804B
:1000D400C7040100010083C6B70493F6F60DA38597
:1000E400D704238007049246F3A60680010001008A
:1000F40093760502D5CEF336078093F6860836C488
:10010400010001002380B7042380C704010001001B
:10011400B70614007D89558D88C7010001000100D0
:10012400010023800704A246F3A606800100010013
:1001340073370780137787083AC6010001002380CC
:10014400B7042380C7040100010001000100372720
:10015400004093061005A303D78023800704B24709
:10016400F3A707800100010093078008F3B7078015
:1001740093F787083ECE01000100B717004013072C
:1001840070052380E704130780FA2380E704010045
:10019400010003C7B70413670708A385E704238096
:1001A4000704F247F3A7078001000100056182807C
:1001B40093760504BDC6F336078093F6860836C8E1
:1001C400010001002380B7042380C704010001005B
:1001D400B7061400938606047D89558D88C70100EF
:1001E40001000100010023800704C246F3A6068033
:1001F4000100010073370780137787083ACA0100AA
:1002040001002380B7042380C704010001003727BD
:10021400004093062005A303D78023800704D24718
:1002240081B773370780137787083ACC0100010040
:100234002380B7042380C704010001009847136793
:10024400070C98C723800704E24719BF01118146B0
:1002540001468145114506CE992993078008F3B7D5
:10026400078093F787083EC601000100B7170040D6
:10027400130770052380E704130780FA2380E7043B
:100284000100010003C76704136717002383E70411
:1002940023800704B247F3A7078001000100F2405E
:1002A4000561828041118146014681451145012144
:1002B40013078008F337078093F787083EC40100CB
:1002C4000100B7170040130670052380C704930686
:1002D40080FA2380D70401000100FD552396B7025C
:1002E40023800704A245F3A50580010001007337AC
:1002F4000780137787083AC6010001002380C704EA
:100304002380D7040100010003C7670413671700A3
:100314002383E70423800704B247F3A7078001007F
:10032400010001A0BD473305F50201007D1575FDEF
:100334008280411122C426C206C6AA8401446317DE
:100344009400B24022449244410182800504130582
:10035400803E4204C13F4180DDB7000093050002A6
:1003640073A0458082457390153492402242B24274
:100374004243D2436244F244025592552256B25645
:100384004257D2576258F25806499649264AB64A05
:10039400464BD64B664CF64C065D965D265EB65EC5
:1003A400465FD65F0961730020304111B7170040E2
:1003B400985F3AC6945F3247E39CE6FE32454101BA
:1003C4008280B7170040130700032388E70285479C
:1003D40023AEF1907300203085472382F194974037
:1003E40000E0E780005373002030411106C6EF009F
:1003F400101D977000E0E7808085D5BF3727004047
:1004040083476700858BBDCF85472303F700938718
:10041400C1999C43850723AEF198938781999843AA
:10042400050723ACE1989443130740066374D7008F
:1004340023AC01989748000083D88875974600003C
:1004440093860674972500009385051D17480000C0
:1004540013088873130340063716004003D70600B9
:1004640003AE070088413307170333476702637DF0
:10047400EE000327C60A498F2326E60A890691055A
:10048400E39E06FD730020300327860A498F232448
:10049400E60AEDB7011122CE26CC0010AA87A307E5
:1004A400F4FE81443DAA8307F4FE63D8070AB71714
:1004B40000409387870A9443B71700409387870ABD
:1004C4001167558F98C3010001000100010001006C
:1004D4000100010001000100010001000100010010
:1004E4000100010001000100010001000100010000
:1004F40001000100010001000100010001000100F0
:1005040001000100010001000100010001000100DF
:1005140001000100B71700409387C70A9443B71737
:1005240000409387C70A1167558F98C301000100E3
:1005340001000100010001000100010001000100AF
:10054400010001000100010001000100010001009F
:100554000100010001000100A5A8B717004093871E
:10056400870A9443B71700409387870A1167558F0A
:1005740098C3010001000100010001000100010015
:100584000100010001000100B71700409387C70A6A
:100594009443B71700409387C70A1167558F98C3D0
:1005A400010001000100010001000100010001003F
:1005B400010001000100010001000100010001002F
:1005C400010001000100010001000100010001001F
:1005D4008347F4FE8607A307F4FEA687850793F4F2
:1005E400F70F9D47E3F197EC01007244E244056183
:1005F40082802303048015472303E480010023023F
:10060400A480828083076480E3CE07FE23030480F2
:10061400828083076480E3CE07FE034544808280A2
:1006240083076480E3CE07FE2302A4808280411105
:1006340026C44AC24EC006C61377F50BAD47AA8935
:100644002E8995446306F70019456537653F8D4447
:100654004E854537FD59FD1463983401B240A244D8
:100664001249824941018280135509011375F50F1E
:10067400453F2209CDB7011126CC06CEB7040800A8
:1006840051371545BD37713769372AC6A53F3245FD
:100694009377150089EB136515001375F50FF24078
:1006A400E24405618280FD14E9FC0145CDBF397146
:1006B40026DC4ADA4ED852D656D45AD25ED006DE5A
:1006C40062CE66CCB7E700E07D5783AA070022C656
:1006D40003AA470023A0E71823A2E718B71700408E
:1006E400130770052380E704130780FA2380E704C7
:1006F40083C74704930B75FFB684E20793FBFB0F94
:100704008546AA892E8B328937240040E187015718
:1007140063FA76016308D500894613070002631360
:10072400D5000157D98F93F7F70FB71C00402382E8
:10073400FC0411472303E4801305F00F5D3D094CCD
:10074400D135636D7C11B7050700DA95378707004B
:10075400795563F2E504B3879500636EF702370BAE
:100764000800A94733EB65016399F90689E48144DC
:10077400513D26850DA0DA850945553D05090345FA
:10078400F9FFFD14050B693D81C49377FB0FFDF759
:10079400DD3569FD7D55B7170040130770052380CB
:1007A400E704130780FA2380E70403C74704418B57
:1007B4002382E704F250B7E700E023A0571123A2F5
:1007C4004711E25432445259C259325AA25A125B66
:1007D400825B724CE24C21618280A5476395F906E5
:1007E40085691309F00FB3069900B3742B01B6940D
:1007F4001349F9FFB3749900856B33796901416B2F
:100804009387F9FFB3F7270199E363FC340193D984
:100814004900C147E3E637FF99BF0569C1697D19FE
:10082400D9B71305800D6388690113050002638439
:10083400790113051008CA85DD3B353D21DD4E994C
:10084400B3843441D9B7DA852D45D533CA94E3004E
:1008540099F205097D3BA30FA9FED5BF9387F9FF44
:1008640093F7F70F6361FC0C83C71C04130730086C
:10087400631FF70437070800636BEB04B3079B009F
:10088400B706100063F5D704334BEB008947639335
:10089400F9068980D549E38C04ECDA850945413BA6
:1008A40011090327C9FF91472320E48003076480CB
:1008B400E34E07FE23033481FD17EDFBFD14110BFA
:1008C40081C49377FB0FE9FF7D3371F5E1B5B71769
:1008D400004003C75704B70708001377070219E35A
:1008E400B78707007955E378FBEA33079B00E3FFFA
:1008F400E7F855B58547E382F9F2DA852D45053BDE
:100904009389F4FFE38504E6293393F7390091EBE7
:10091400832604800327090093074900E39AE6E449
:100924003E89CE84F1BFB5476396F9001305900B59
:10093400C93135BDB1471305B00AE38BF9FE9947B8
:100944006391F904B7050800B365BB002D45C531B3
:1009540081448D4BA14975396396740183270480C2
:100964002320F9008504E39834FF832704801317B8
:100974002B01635507002312F900D5BB2322F9008C
:10098400FDB39D476399F90281451305B0044531D0
:10099400BD442320090023220900FD599D3993F702
:1009A4007400CA9703C70700FD14398D2380A7007C
:1009B400E39634FF6DBBA1476392F9046D3981441A
:1009C400630D0B008D479304C0036308FB0093047D
:1009D400000563048B01930440041375C507E30801
:1009E40095D81945393139390545213126850D39CF
:1009F40009453D314931E31C05D669BB91476399EB
:100A0400F90013056006F536F53E130590090DB798
:100A1400E38F09D4F154A9BB197106C212C416C6D6
:100A24001AC81ECA22CC26CE2AD02ED232D436D60A
:100A34003AD83EDA42DC46DECAC0CEC2D2C4D6C6FA
:100A4400DAC8DECAE2CCE6CEEAD0EED2F2D4F6D6EA
:100A5400FAD8FEDA938541918841E7000500924077
:100A64002242B2424243D2436244F2440255925576
:100A74002256B2564257D2576258F25806499649FE
:100A8400264AB64A464BD64B664CF64C065D965DF6
:100A9400265EB65E465FD65F096173002030B7E715
:100AA40000E09843B706200023A0D718758F0F10D5
:100AB400000001C599C1814711E6B7E700E023A012
:100AC400E7108280B386F50003C80600B306F5007C
:100AD400850723800601E317F6FEC5B737E700E074
:100AE4001C43B70620002320D718F58F0F100000F1
:100AF40019C191C111E637E700E02320F710828085
:100B0400910503A7C5FF11057D16232EE5FEDDB76C
:100B140037E700E01C43B70620002320D718F58FE1
:100B24000F10000001C53307C50011E637E700E0E8
:100B34002320F71082800505A30FB5FEE31DE5FE13
:100B4400F5B7B7E700E09843B706200023A0D7180D
:100B5400758F0F1000008147B306F50083860600E9
:100B640099E6B7E600E023A0E6103E85828085077B
:100B7400E5B737E700E01C43B70620002320D71869
:100B8400F58F0F10000001C599C1014711EA37E73D
:100B940000E02320F710054582800507E309E6FEFF
:100BA4003308E500B386E5000348080083C6060061
:100BB400E305D8FE37E700E02320F71001458280E3
:100BC40037E700E01C43B70620002320D718F58F31
:100BD4000F1000001307F6FFBA952A966317C50095
:100BE40037E700E02320F7108280FD1503C71500C6
:100BF4000505A30FE5FEDDB737E700E01C43B706A4
:100C040020002320D718F58F0F10000001C53307EB
:100C1400C50019E637E700E02320F710014582807C
:100C240005058346F5FFE397B6FEE31BE5FE37E7CC
:100C340000E02320F7100545828079719747000072
:100C44009387071222D4804306D626D24AD04ECEAA
:100C540052CC56CA5AC85EC679C0B7C4C901014B42
:100C6400974900009389490F9384F437174A000089
:100C7400130A4A0F974A0000938A4A091749000049
:100C8400130909138357240095E35C44631D0B0087
:100C9400174700002326F70C832BC4002285EF009E
:100CA400701E5E84B9A82326FB00FDB783A7090044
:100CB40082971C443307F5406376F5000327490007
:100CC4001D8F2A9763E2E4089747000023A80704CE
:100CD4008355240003450400978000E0E780C00F9B
:100CE4005C405844A1CB0C4403264900AE97BE8611
:100CF40063E4B70063E4C700B386C74014C4228B1F
:100D04003A8449F097470000938747009C4B094772
:100D14006372F706F917174700002321F700B25052
:100D2400225492540259F249624AD24A424BB24B7B
:100D34004561828063170B009747000023A2E702F6
:100D4400A1BF2326EB0089BF03274A0209CF63EF23
:100D5400A7003385A74083A70A016376F500974768
:100D6400000023ADA7FA228B404461BF032749004A
:100D7400BA97C5B79747000023A207FA4DB797471C
:100D84000000938767029C4385C3411106C682977E
:100D94009747000083C727FC89E79747000023A5EE
:100DA4000700B240410182809747000083C7A7FA39
:100DB40091E79747000023A907FE828082804111B2
:100DC40022C417440000130424F71C4006C626C29C
:100DD4004AC091C782979747000023AF07F497470B
:100DE400000083C73716858B17490000130949157E
:100DF40089CF8347790019476312F710974700009A
:100E0400A382071411235C4482971C4491C38297E4
:100E140097440000938484F49840174600000346E6
:100E2400F6EE9747000083C767EE93961700BA96CD
:100E340083D60600E5C29747000083C727ED63E524
:100E4400C70E97470000238307EC1C40639E0714DA
:100E540097470000938747F09C436387071497479D
:100E640000009387E7F4DC43174700002328F7EAE0
:100E7400E9339747000083C7570D639707129747D5
:100E8400000083C7770C91CF8347790093F7F70F5E
:100E940089EB97470000A389070A979001E0E78050
:100EA4002097974700009387E7EBDC53638E070E88
:100EB40097470000938787E59C4BFDC783477900DC
:100EC40015476363F70E9747000083C7E70C918BC0
:100ED400E1EF9747000083C707E8F9E7904097469A
:100EE400000083C6B6E263C7D70C2244B2409244E2
:100EF40002494101178300E06700A350834779004A
:100F04001D47E314F7F097470000A38D0702ED2E69
:100F14001C48DDBD850793F7F70F9746000023872C
:100F2400F6DEE3E0C7F001BF86073E97835507006E
:100F34002310070097470000239E07E0974700000F
:100F4400938747DF9C4317450000034525DC1317AF
:100F54002500BA979C4382979747000083D787DF81
:100F640017470000034787DA93C7F7FF7D8D931770
:100F7400170098403E97835707005D8D2310A70004
:100F84009747000083C787D891C785071747000094
:100F9400230EF7D617470000034747D797470000AB
:100FA40083C7D7D6E37FF7E8B2402244924402498C
:100FB40041018280139717003297035707006DF79A
:100FC400850715B737C700408326C720B707FCFF3E
:100FD400FD17F58F2326F720010001009747000035
:100FE4009387C7D2C84F832787262326D7206A052D
:100FF40093C7F7FF99835D8D8280011197470000A5
:101004009387C70422CC03A4070C26CA06CE2AC49D
:101014002EC6854419E40145F2406244D244056178
:1010240082808347910003471400858B6304F70093
:101034000044CDB719469305A10013052400153EBD
:10104400E31895FE0545C9BFEFF07FD37300000098
:1010540000000000974200009382E2CF0383020065
:1010640023800200630F0300F32510342EC097057C
:1010740000009385A5FD73901534EF00A04B730019
:10108400203086DCEF00004BE650828000001747DA
:1010940000001307A7EA1443411122C49C5E4AC00E
:1010A40006C6998326C2858B3A8417490000130922
:1010B400A9E8D1CB930700069CDE1747000003473D
:1010C40087E89307000897440000938464E7631B50
:1010D400F700832709009C4393F707041747000090
:1010E4002303F7E683C7040093F707049DC39747D8
:1010F4000000938767C69C4382979747000023AFFD
:10110400A7E483C7040093F7F70B174700002309EC
:10111400F7E283C7440093F7070495E78547174729
:101124000000A301F7E2974700009387E7E39C439D
:101134003707020098C7130700FC97460000238373
:10114400E6E09848F8D318401C5F9183858B8DC3E3
:101154001C5F93E707011CDF974700009387C7E0F4
:101164009C4323A20706854717470000230CF7DC9E
:1011740083270900D8430583058B19C7D843759B7A
:10118400D8C3D843799BD8C3B2402244924402497D
:1011940041018280ED3D730020309317D50063D365
:1011A400070297470000938727DC9C437D57B8D7F5
:1011B40097470000938787B5DC4F850717470000E2
:1011C4002324F7B6937785008DC39747000083C720
:1011D40047D793E71700174700002304F7D6930770
:1011E40000F817470000230FF7D49377150099CB25
:1011F4009747000083C7D7D493E717001747000029
:10120400A300F7D49377650095CB937745001747F0
:1012140000001307E7D2CDCB8347070093E71700FD
:1012240017470000230EF7D097470000938707D194
:1012340098435C57F19B93E717005CD79317F5002D
:1012440063D40702174700000347C7E7418B97475A
:1012540000009387A7DF51C383C7870793E707027B
:10126400174700002300F7E69317E50063D707024A
:101274009747000083C707CDE207E18763D70700DC
:10128400854717470000230FF7CA97470000938745
:10129400A7CD9C433707020098C79317C50063D4B2
:1012A4000702174700000347F7E1058B9747000043
:1012B4009387C7D929C383C7970793E7270017479D
:1012C4000000A301F7E082808347370093E717000B
:1012D40017470000A307F7C681BF03C787078946DE
:1012E4003D8B6308D70083C787070D47BD8BE39DFC
:1012F400E7F69147B5B703C79707118B69D783C73B
:10130400970793E7870065BF974700009387C7C592
:101314009443974700009387A7C203C70700058B30
:1013240011CB97470000238F07C097470000A38B7A
:1013340007C0828003C71700058B65F7F85271FF59
:1013440083C75700DDB717470000130727BF0328DB
:101354000700832788039583858BADEF11C6832708
:101364000803BD832300F6009DC61C43985B460713
:10137400935767016356070093E707C0C207C18309
:1013840003970600C207C18709C7BA970947B3C7BD
:10139400E7022390F6008DCD8345150095C9974744
:1013A400000083C747BA93F707041387950089455C
:1013B40085C33A95834705000547994593F6F70693
:1013C4006398E600E207E187814563D30700B945E6
:1013D4002E8582808545EDBF411126C206C622C4F2
:1013E40097440000938444B83DED9440AE87F8528E
:1013F4007DFF37F400E03E8597470000238307B460
:10140400832704D1B285ED9B2328F4D0832704D10C
:1014140093E787022328F4D073005010978001E0EB
:10142400E780602697470000938747B19C43B7063F
:1014340080009843558F98C3D857719BD8D7974746
:101444000000A38107B097470000A38B07AE9C4020
:10145400094798C3832704D193E787002328F4D04E
:10146400730050100DA08D476315F50497470000D5
:101474009387C7AC9C43B70680009843558F98C3A5
:10148400D857719BD8D7944017470000130747AB30
:1014940083472700858B89EB83473700858BC1CB36
:1014A40097470000238007AAB24022449244410196
:1014B40082808547E319F5FCB7F700E003A707D15D
:1014C4006D9B23A8E7D003A707D11367870223A83E
:1014D400E7D07300501098408177FD175447F58F7B
:1014E4005CC70F1000009840B70702001CC79307A1
:1014F40000F8174600002307F6A4974700009387D7
:10150400E7A39C439C439D83858B639FA70093071C
:1015140060197CD354C737F700E0832707D193E7DA
:1015240087002328F7D02DBF9307E01BDDB7FC52BB
:10153400A5F39DBF97470000938707A39C43884763
:10154400D847798D09C988C79387C1A403A3070025
:101554006303030002838280974700009387C7A038
:1015640098438967938707F47CD397470000938750
:10157400E7A49C4383A60709139656006358060004
:1015840083A6070913966600634406007453FDF2AC
:1015940082804111B7E700E022C48043370720006E
:1015A40006C6798C23A0E7180F10000011C199E535
:1015B400B7E700E023A0871001457DA89307350015
:1015C400C207C183F19BC207C18313074003636948
:1015D400F70217470000130727A70843174700001F
:1015E400130707A614436392A602173700001307D4
:1015F4006777185B55DFC207DD8D054502974DBF40
:1016040017470000130707A4C9BF035765002DEB54
:10161400035745006366F706B306F7402146637C2B
:10162400D60203280500938687001D8FAA966117AA
:10163400173600000356E66D2392E60023A0060148
:101644002393060014C12312F500130786FF97366F
:1016540000002390E66C2313B5009735000083D572
:10166400456BB387F540173700002314F76AB7E7D3
:1016740000E023A087102105B2402244410182806A
:10168400084195B7B7E700E08C433707200023A053
:10169400E718F98D0F10000001E523A0B710828030
:1016A400974700009387479A03A3070097470000D2
:1016B4009387079983A8070081469A8763F2170DD9
:1016C40003A807006361F50C636FA80A13878700FA
:1016D4006368E50A03D66700216705076317E60018
:1016E40003C741A405072382E1A4173500001305AD
:1016F400E56103D64700035765002393070032973B
:1017040042074183173E00002315EE60638C670295
:101714001743000013030393032303006304F3023A
:1017240003D366006310030283D7460023A0060197
:1017340021073E9621062392C60097370000239A7C
:10174400E75CB6879843630D1703974600009386BA
:10175400668F94426306D7028356670095E283D668
:101764004700035647001843A106B2962392D700B8
:1017740098C383576500A10717370000231BF75848
:10178400B7E700E019BFBE86C2870DBF03278511E6
:1017940063020712411122C406C68347C50083456C
:1017A400E5042A8493F7C70F2306F50083469700C0
:1017B4000356C70013958601618563F2C508635B10
:1017C40005060345870093F6F607A304D7000546EC
:1017D40093E627006314C50093E617002306D4009C
:1017E4005C4389075CC3A30AB400032504112E8655
:1017F4004C430905EFF0AFAA832784110346540133
:10180400D44303D7C700B296118FD4C32396E700FD
:101814008947A30DF400034764039737000083C787
:1018240087556378F7048347C40093E707012306C9
:10183400F40081A093E717002306F4006DB79376B4
:10184400F60F635D050203458700854513E627000F
:101854006314B50013E617002306C400A30AD400DA
:10186400A30407008547A30DF400832784119C4338
:10187400DDF3B240224401454101828093E7170021
:101884002306F400A30AD400A304070003250411CB
:101894004C430905EFF0AFA083278411034654019C
:1018A400D44303D7C700B296118FD4C32396E7005D
:1018B4008D4755BF05458280974700009387C78BA6
:1018C4009C43411122C406C6858B2A84C5EF416519
:1018D400130525F5974002E0E78040EB45C58347B3
:1018E400A5002315F50083270412BDE72320A412C5
:1018F4002322A41285472311F404232005008347DF
:10190400640154412316F5000347D4002304E50081
:101914000547A304E500173700001307676258530F
:101924001385170215811C437D151375F50F9CC291
:101934005C43DCC21C479CC65C47DCC61C4B9CCA8F
:101944005C4BDCCA1C4F9CCE5C4FDCCE19CD93861D
:10195400060213070702C1BF8327441288C38357B3
:1019640024042322A412850779B79737000083D76C
:10197400676E850717370000231EF76CB2402244B8
:10198400410182808347C40023090400054593C7AD
:1019940047002306F400DDB78347850193F7E70F7B
:1019A400D5EF83479501DDEB034625018346C5004A
:1019B40009CA83456503173700000347D73B63E72C
:1019C400E50013F7060141CF014709C6C18A035751
:1019D400651C81C68356A51C369751C31307C712CD
:1019E400173500000355453DB335A70237460F00B0
:1019F400411113060624814622C426C206C67D541C
:101A04003305A702977002E0E78060AD97370000C6
:101A140083C7B736B384A70097370000938707635B
:101A240003A787098327070963F387003E841843C4
:101A340075FB97370000938727329C438297814731
:101A44006364A400B307A440B2402244B3B7970030
:101A540093C7170092443E854101828081473E85A9
:101A64008280973700009387275098433C5BFDFFA3
:101A7400010001008280011122CC4AC84EC606CE64
:101A840026CA52C456C25AC00347B50085472A84A1
:101A94002E89832905096310F72083570508035B02
:101AA400C503973A000083DA2A31173A0000130A73
:101AB4002A3063FA671B834605016396E61A0327F7
:101AC40085116312071A0327450A631E0718834604
:101AD400F5001D476399E6180355A503330BFB4036
:101AE4009307204E330565038324440937460F00CA
:101AF4008146130606243305F5029737000083C791
:101B0400C727B3549502B3B5AA02BE94C204C180D8
:101B1400231394083385AA02977002E0E780209C7F
:101B2400B307350133B5A7002E953E8783264A00B7
:101B340019E163E4D7003387D740B3845403B7462D
:101B44000F009387F623938606242320E900A697A3
:101B5400B3D7D702DA976362F7101D8F2320E90009
:101B6400973900009389491F83A70900832409003A
:101B7400829763E5A4123385A4406354050C83A7BC
:101B840009008297032709006361E512198D8357C1
:101B9400E40317370000035727228E07B387E702B1
:101BA4001307003293870719B3D7E70263E7A71037
:101BB400374A0F00130BFA23973A0000938A4A1FFF
:101BC400130A0A248357040485072310F404834763
:101BD400041499E322856D222285973002E0E78080
:101BE40060AE75E9832604098327C40803A74A0065
:101BF400B6973E8563E4D70063E4E7003385E740A6
:101C04008347F401835464082328A4088507A30F99
:101C1400F4009737000083D7271AB384F402DA94C8
:101C2400B3D444036368950CB304954083A70900B7
:101C340023209900829763E3A40C3385A440E343F3
:101C440005F89737000083C7571363E7A70897374A
:101C5400000023AD8748014541A083264A00B3878D
:101C6400F6403E97E5BD8354640837470F00930759
:101C7400F723B3845403BE9493070724B3D7F40221
:101C840063E7F900B387F9402320F900D1BD0327A6
:101C94004A00BA99C5BF23A03501D9B597370000CA
:101CA40093870711DC43BE94F9B5973700009387F7
:101CB4002710DC43998F3E95D9BDA14522859730E5
:101CC40002E0E7800099A305A402973700009387F8
:101CD40067099C5B81EF7D55F2406244D2444249DE
:101CE400B249224A924A024B0561828089451545D0
:101CF4008297D5B7B3049740AA940DBF83A74A002F
:101D0400BE9425BF2DCD01116C0022CC06CE2A84B1
:101D14009D332DC1FD576305F502173700001307E6
:101D240067045853B24705CB2547637FF700D9179B
:101D34003EC6B24503459402977000E0E780A021B7
:101D4400F24062440561828017370000130747069A
:101D54005843BA97E9BF173700000347170263E4F3
:101D6400E700998FF1B79736000093866604D44252
:101D7400B697C5BF973002E0E7804052D1B7828062
:101D8400797126D206D622D44AD04ECE52CC56CA27
:101D94005AC85EC68347550303447513AA843E9408
:101DA4001374F40F9307400263F687001304B4FD21
:101DB4001374F40F03AA841383AAC413A38B841289
:101DC40022865285D685976002E0E780402E0589F9
:101DD40015E503CBD41201498149337B6403930B8A
:101DE40050024A865285D685976002E0E780202C0F
:101DF400058915C5639169031374F90F238B841244
:101E0400B250225492540259F249624AD24A424B85
:101E1400B24B456182808509E20993D9894105095C
:101E2400E31179FDE1BF8327850903560504797120
:101E340093D60701BD8EC206C182358E13577640F4
:101E440093575640898B058B5D8F93573640918B02
:101E54005D8F93571640A18B5D8F93171600C18B2E
:101E64005D8F9317360093F707025D8F9317560023
:101E74009355860093F707041E065D8F1376F60FBD
:101E8400518F93D7554013D63540118A898BD18F02
:101E940013D67540D18F13D61540218AD18F13964E
:101EA4001500418AD18F1396350013760602D18F1F
:101EB40013965500137606049E05D18F93F5F50FFE
:101EC400CD8FA20745465D8F3307C70222D42A84EB
:101ED40026D252CC56CA032A8413832AC4135AC85E
:101EE40006D6369742074183935777401355574098
:101EF4000989858BC98F135537401189C98F1355AB
:101F040017402189C98F131517004189C98F1315EB
:101F1400370013750502C98F1315570093558700B1
:101F2400137505041E07C98F1377F70FD98F13D5BF
:101F3400354013D755401189098B498F13D5754006
:101F4400498F13D515402189498F1395150041896F
:101F5400498F1395350013750502498F1395550064
:101F6400137505049E05498F93F5F50F4D8F2207D0
:101F7400D98FB387C7024AD04ECE5EC662C4B69725
:101F8400C207C18313D7774013D557400989058BFE
:101F9400498F13D537401189498F13D517402189AB
:101FA400498F139517004189498F1395370013758D
:101FB4000502498F1395570093D5870013750504BF
:101FC4009E07498F93F7F70FD98F13D5354013D751
:101FD40055401189098B498F13D57540498F13D505
:101FE40015402189498F139515004189498F13950F
:101FF400350013750502498F1395550013750504B3
:102004009E05498F93F5F50F4D8F2207D98FB3871E
:10201400C702130650025285D685B697BD8E939497
:102024000601C18033F6C402137BF60F976002E009
:10203400E780E00705890DED8347D4120149814902
:10204400B3849702130C5002C1804A865285D68508
:10205400976002E0E780A0050589937BF90F11C51D
:1020640063863403850993F9F90F0509E31F89FD94
:10207400230B6413B250225492540259F249624A17
:10208400D24A424BB24B224C456182805E8BCDB723
:10209400011197370000938767FB22CC03A4870CB8
:1020A40026CA4AC84EC606CEAA8413092500854905
:1020B40015C083C7140003473400858B6304F700FD
:1020C400405CFDB71946930544004A85EFE07FAABA
:1020D400E31835FF2285F2406244D2444249B249B2
:1020E40005618280411197370000938727F622C447
:1020F40003A4870C26C24AC006C6930425000549DA
:1021040001E82285B240224492440249410182807E
:10211400A6851305A402974002E0E780A074E302B9
:0821240025FF405CF1BF000043
:10212C0097110020938141E4174100201301C16CE9
:10213C001305400097E5FF1F938505EC170600205B
:10214C00130606FE63FAC5008322050023A0550082
:10215C0011059105E3EAC5FE17950200130585A448
:10216C00970500209385C5FB1386418B63FAC50048
:10217C008322050023A0550011059105E3EAC5FE55
:10218C001385818B973500209385C5FF6377B50048
:10219C00232005001105E36DB5FEFD42739002BCD2
:1021AC008D4273904280930280087390023097E2C4
:1021BC00FF1F938262E493E2320073905230975285
:1021CC000000938262EF73901234730020303D4311
:1021DC002A876373C3029377F700BDEFADE593765F
:1021EC0006FF3D8ABA960CC34CC30CC74CC74107BB
:1021FC00E36BD7FE11E28280B306C3408A069702D6
:10220C00000096966780A6002307B700A306B700C8
:10221C002306B700A305B7002305B700A304B70036
:10222C002304B700A303B7002303B700A302B7002E
:10223C002302B700A301B7002301B700A300B70026
:10224C002300B700828093F5F50F93968500D58D0A
:10225C0093960501D58D61B79396270097020000E0
:10226C0096968682E78086FA9680C1171D8F3E96D9
:10227C00E374C3F8A5B7B717004003C777051A0571
:10228C001377E70FA38BE70413974500598D13655C
:10229C0035001375F50FA38CA70403C7A705C189D7
:1022AC0091C513672700238DE70482801377D70F1E
:1022BC00DDBFB717004003C777051377E70FA38B74
:1022CC00E704130700F8A38DE7043D47238CE704CC
:1022DC0013075003A38CE70403C7A7051377D70F85
:1022EC00238DE7048280371700408347A70593E7C7
:1022FC001700230DF7048347A705858BEDFF0355C6
:10230C00C705520551818280B717004003C7E70209
:10231C000D8941111377C70F498F93068008F3B6C7
:10232C00068093F6860836C60100010093067005F8
:10233C002380D704930680FA2380D7040100010080
:10234C002387E70223800704B247F3A70780010025
:10235C0001004101828041112A83014E930E407E7F
:10236C00130F0019930F400663E56E1293080019C2
:10237C0013034006B3781503854E0D4FA14F3373ED
:10238C0065020D891335150063EFBE121308F6FFB5
:10239C00794672984208135808013307C70213D6BE
:1023AC001700BE0732976146B3F6C602130680705B
:1023BC00B386C6023697A166F58F42075D8FB716B6
:1023CC00004083C7F60293F70708A303F100034606
:1023DC00710083C7F60293F70708E394C7FE83479F
:1023EC007100B716004093F7F70F63880712930735
:1023FC008008F3B7078093F787083EC401000100FB
:10240C00B7170040930670052380D704930680FA13
:10241C002380D7040100010023AA070383C61703F6
:10242C0093E60608A388D70223800704A247F3A7E4
:10243C000780010001001166B71700407D16D45BC0
:10244C00C85F93854703A98EF18EF5FA9306800831
:10245C00F3B6068093F6860836C601000100930693
:10246C0070052380D704930680FA2380D7040100DB
:10247C00010098C103C7170313670704A388E70279
:10248C0023800704B247F3A7078001000100410134
:10249C0082807D133368E3039308E016630E080013
:1024AC003368F3039308D01663080800937833005D
:1024BC0093B818009388D81633081E01131E080110
:1024CC00135E0E0155B56393E5030548638608005A
:1024DC000148630303002A8871087298FD15131EC6
:1024EC000801C205135E0E01C18179BD13F81500F8
:1024FC0063F4BF007908D5B713381800E5BF83C75C
:10250C00F60293F70708A303F1000346710083C793
:10251C00F60293F70708E394C7FE8347710093F71D
:10252C00F70FF1DFE9B531714AD966CB06DF22DD51
:10253C0026DB4ED752D556D35AD15ECF62CD6AC95F
:10254C006EC7AA8C02D8EF00901C2A8993078008CA
:10255C00F3B7078093F787083EDA01000100B7173D
:10256C000040130770052380E704130780FA2380CB
:10257C00E7040100010003C7F7021377770FA38765
:10258C00E70203C7F70213678700A387E7022380DC
:10259C000704D257F3A70780010001000545AD33AE
:1025AC00130780C13347E902116A93070AE89306BF
:1025BC005002BD69930BA004814A014B130480089F
:1025CC00930470057D1AB347F9023307D7023EC056
:1025DC00FD873ECC938709A69309803E3347F702CB
:1025EC003AC27D873AC4334739038549B399990177
:1025FC0093D93940B306D702B30B7703B3C6F602AF
:10260C00B3CBFB0236C6FD8636C893D6FB4136CE1D
:10261C00B7460F00938606243349D9028566938604
:10262C0006FAB3969601B389E9021307605533098C
:10263C00D90293060010B389E9023349D902B3C910
:10264C00F9029316390036CA37190040FD8636D088
:10265C00930D090493D7F9413ED2F336048093F6D7
:10266C00860836DC01000100930770052380FD000D
:10267C00930680FA2380DD000100010083463905B2
:10268C0093F6860FA309D9048346390593E6160001
:10269C00A309D90423800D00E256F3A6068001009D
:1026AC000100130C80FA116DF336048093F6860842
:1026BC0036DE01000100930770052380FD002380A6
:1026CC008D010100010083463905216693E606025F
:1026DC00A309D90483560905B3E6A6012318D90426
:1026EC0083560905D18E2318D90423800D00F25688
:1026FC00F3A60680010001008346390593F6060215
:10270C00638A061803463905218A6DDE0818EF0026
:10271C0010047336048013768608B2C201000100DF
:10272C0023809D0023808D0101000100B71700401C
:10273C0003C637051376F60DA389C70403C6370500
:10274C0013660602A389C704835609052166B3E6FE
:10275C00A6012318D90483560905D18E2318D90450
:10276C0023800D009646F3A60680010001008346E7
:10277C00390593F606026386061483463905A18A49
:10278C00EDFE97E0FF1FE7804090AA8636D497E0D5
:10279C00FF1FE780808FA256E30AD5FE83560905FA
:1027AC004255B3E6A6012318D904C127834639053F
:1027BC00A18AEDDE03560905834629058247337647
:1027CC00CA00B306DA0293D5F641B296B388F64046
:1027DC00E24733B8C6002E983308F840A247B3B688
:1027EC0016013308D84063C70701631DF8009247F0
:1027FC0063FA1701C247634DF80E63950701B247A0
:10280C0063E8F80E894663E7660FF24693151800E5
:10281C0013D3F8015E8613951800B365B30042D646
:10282C0046D4EF50520D3258050B137BFB0F634708
:10283C00000163120838A258638F0836130815007C
:10284C00B336A800B69513D6F5013298B336C80046
:10285C00AE9613581800FE06B3E6060173360480D4
:10286C0013768608B2C60100010023809D002380E8
:10287C008D01010001000356C902B296C206C18245
:10288C002316D90223800D00B646F3A6068001005C
:10289C00010019BDF336048093F68608B6C001001A
:1028AC00010023809D0023808D01010001008346DF
:1028BC00390593E60602A309D90423800D00864648
:1028CC0005BDF336048093F68608B6C401000100FA
:1028DC0023809D0023808D01010001008346390572
:1028EC0093E60602A309D90423800D00A646A5BDD4
:1028FC00E30D0BF0F336048093F68608B6C801009E
:10290C000100930680FA23809D002380DD000100E6
:10291C0001008346390593F5FC0F93F6860FA30946
:10292C00D90483463905CD8EA309D90423800D0023
:10293C00C646F3A6068001000100130580FA034683
:10294C003905930639051D8A63149629733604805C
:10295C0013768608B2CC01000100130680FA23809E
:10296C009D002380CD000100010003C606001376F4
:10297C00F60D2380C60003C60600136606022380EC
:10298C00C600835609051166D18E2318D9048356C7
:10299C0009052166D18E2318D90423800D00E64643
:1029AC00F3A6068001000100130680FA8346390560
:1029BC0093F606026388062483463905130C390501
:1029CC00A18AFDDA08186123F336048093F6860891
:1029DC00B6D001000100930680FA23809D0023806D
:1029EC00DD000100010083460C00116693F6F60D24
:1029FC002300DC0083460C0093E606022300DC0077
:102A0C0083560905D18E2318D904835609052166EE
:102A1C00D18E2318D90423800D008656F3A6068088
:102A2C0001000100130680FA8346390593F606026D
:102A3C006385062083463905A18AEDFE97D0FF1FDA
:102A4C00E780A0642A8C97D0FF1FE7800064E30C1A
:102A5C0085FF8356090511664255D18E2318D9047A
:102A6C0029238346390513063905A18AFDDAF33685
:102A7C00048093F68608B6D401000100930680FA10
:102A8C0023809D002380DD000100010083460600A9
:102A9C0093F6F60D2300D60023800D00A656F3A660
:102AAC000680010001008356090503462905D2471B
:102ABC00B376DA003306CA021305800C9355F6413F
:102ACC003696330DF6408257333CD6002E9C333667
:102ADC00A601330CFC40330CCC40330885039256D2
:102AEC004E86B335A5033305A503C295EF50A260FE
:102AFC0063468001631E0C16630C0D16130615003D
:102B0C003335A6002E959356F5013696B335D6007F
:102B1C00AA959396F50105828585D18E6346B00002
:102B2C00639D051A638B061A0356C9021582330579
:102B3C00D6003336C500B2956348B00063910524C6
:102B4C001306F00F637DA622894663F3561593078F
:102B5C008008F3B7078093F78708BED60100010001
:102B6C0037170040930770052300F704930780FA8A
:102B7C002300F704010001008356C70289678117FF
:102B8C00D58FC207C1832316F70223000704B6575B
:102B9C00F3A7078001000100FA506A54DA544A592D
:102BAC00BA592A5A9A5A0A5BFA4B6A4CDA4C4A4D71
:102BBC00BA4D296182801308F5FF3335A800FD1545
:102BCC002E951356F5013298B336C800AA9651B11A
:102BDC00F336048093F68608B6CA01000100238000
:102BEC009D002380AD000100010083463905CD8E88
:102BFC00A309D90423800D00D646F3A60680010054
:102C0C00010035BBF336048093F68608B6CE01007E
:102C1C00010023809D002380CD000100010083462C
:102C2C00390593E60602A309D90423800D00F64664
:102C3C00F3A606800100010095BBF336048093F6E1
:102C4C008608B6D20100010023809D002380CD00B0
:102C5C00010001008346390593E60602A309D90455
:102C6C0023800D009656F3A60680010001006DBB73
:102C7C009306F5FF33B5A600FD152E959355F5017A
:102C8C00AE96B3B5B600AA951396F501858269B5D3
:102C9C00F336048093F68608B6D80100010093063B
:102CAC0080FA23809D002380DD0001000100835603
:102CBC00C9020566011693F6F60FD18EC206C182C3
:102CCC002316D90223800D00C656F3A606800100F8
:102CDC000100850A93FAFA0F49B233E6B60045C2F1
:102CEC000356C9023305D0403338A000B305B040B9
:102CFC00B385054115826345B000D1E16371A60827
:102D0C00894663F0560593078008F3B7078093F75D
:102D1C008708BEDA01000100B717004013077005E1
:102D2C002380E704130780FA2380E70401000100E5
:102D3C0003D7C7027D8B2396E70223800704D6575F
:102D4C0081BDF336048093F68608B6DC01000100E1
:102D5C00930680FA23809D002380DD000100010092
:102D6C008356C9020566011693F6F60FD18EC2067C
:102D7C00C1822316D90223800D00E656B9B79307FA
:102D8C008008F3B7078093F78708BEDE01000100C7
:102D9C0037170040930770052300F704930780FA58
:102DAC002300F704010001000356C7029397560055
:102DBC00B297C207C1832316F70223000704F65704
:102DCC00C1BB914763EEB70217770200130707ECFC
:102DDC008A05BA959C41BA978287B717004003A71A
:102DEC00470B1345F5FF698F23AAE70A03A7070BC7
:102DFC00698F23A8E70A03A7070A798D23A0A70ADE
:102E0C008280B717004083A6470B1347F5FFF98E56
:102E1C0023AAD70A83A6070B558D23A8A70A83A636
:102E2C00070A758F23A0E70A8280B717004003A713
:102E3C00470B498F23AAE70A03A7070B1345F5FF96
:102E4C0045BFB717004083A6470B1347F5FF758F97
:102E5C0023AAE70A03A7070A598D4DB7B7170040F5
:102E6C0003A7470B498FEDB7914763EEB70217776E
:102E7C0002001307E7E28A05BA959C41BA9782874C
:102E8C00B717004003A7470D1345F5FF698F23AA19
:102E9C00E70C03A7070D698F23A8E70C03A7070C02
:102EAC00798D23A0A70C8280B717004083A6470D0D
:102EBC001347F5FFF98E23AAD70C83A6070D558D62
:102ECC0023A8A70C83A6070C758F23A0E70C828080
:102EDC00B717004003A7470D498F23AAE70C03A798
:102EEC00070D1345F5FF45BFB717004083A6470DE7
:102EFC001347F5FF758F23AAE70C03A7070C598D11
:102F0C004DB7B717004003A7470D498FEDB7B7175B
:102F1C0000408847420541819377050491EB9377F4
:102F2C00F5013755E801130505803345F50282801C
:102F3C009377050C130700046397E7009377F5016B
:102F4C0037459C1CCDB72165130505D0828037E72A
:102F5C0000E01C435443A183E206D58F1CC1FD57EE
:102F6C002320F7182322F718828013178500B7E760
:102F7C0000E023A0E710618123A2A7108280B7F79D
:102F8C0000E08847CC478280814737370040A14614
:102F9C0063C4C700328582800345B740E38EA6FE2A
:102FAC003385F5000345050085072304A740CDB7FD
:102FBC0097F7FF1F9387477B9C4317270020130726
:102FCC00671C3E95636EE500173700201307C76238
:102FDC006368A70017F7FF1F2328A7783E85828018
:102FEC00FD57EDBFB7270040C8C709472380E7004E
:102FFC0011472380E700828012059A05B72700400D
:10300C0009474D8D2380E7401375F50F2380A740AA
:10301C0082801A05B7370040094713655501238094
:10302C00E7801375F50F2380A7808280411122C49D
:10303C0006C62A84E93D2947B307E502B2408D83D1
:10304C00B3D7870222449507B3D7E702373700403E
:10305C00C207C1832316F74041018280716541117B
:10306C001305052006C6D937B7370040130770F88B
:10307C002381E7400D47A381E74013070004A38099
:10308C00E74005472387E740B24041018280B7877C
:10309C000040238007001307C0FC2386E700A386AB
:1030AC00E70003D7818B2398E70003D7C18B239AC2
:1030BC00E70003D7018C239CE70003D7418C239EA8
:1030CC00E70089462381D70249472383E7022385FA
:1030DC00E7022387E7022389D702A381070013079E
:1030EC0090022380E700B716004003D7A6011367B0
:1030FC00070C239DE6007D572383E700130710F888
:10310C00A380E7001D472381E7008280B78700403A
:10311C002386A70203C7E7021377C70F2387E702AB
:10312C0082809387418D9C43411106C691C382973F
:10313C009387818D9C4391C3829703D761809307BA
:10314C00001963F7E70403D581809306F01863E454
:10315C00A6049386018D03A3060063070300B24007
:10316C0013050019410102830507098F3385A74018
:10317C00E5473305F5024207418309839307F7FFBF
:10318C003E953345E5021375F50FB240410182803F
:10319C0013054006DDBF0145CDBF03A84500411115
:1031AC0026C206C622C48347180003480800A94457
:1031BC00A207B3E70701C2070D68C187130828905F
:1031CC006396070385473284EFB03023AA8419ED48
:1031DC009387C18C9C4399CB03451400034704008F
:1031EC002205598D1335150005058297B2402244EE
:1031FC0026859244410182802D453DE7D8414111FD
:10320C0022C426C206C68347170003470700B684AC
:10321C00A207D98F0D67930697A132846396D702C4
:10322C00093783C741806374F5002382A1808547E9
:10323C002390F40083C741802300F4000145B24081
:10324C002244924441018280130787902945E398D8
:10325C00E7FECC4589472390F4000946228597E088
:10326C00FF1FE7804083D9BF828083474500858B51
:10327C00ADC7011122CC2A84035525009385C1A921
:10328C0006CEEFB05012058929C50355240001471D
:10329C0081460546ED45EFB0004B2AC61DC997F790
:1032AC00FF1F9387E7E783D7A70201462C0023145F
:1032BC00F10085472315F10083C741802300F500F9
:1032CC0003552400EFC0006B09C5ED452800EFB095
:1032DC00405FF24062440561828082804165411109
:1032EC009385C1A97D1506C6EFD04058B24097F61C
:1032FC00FF1F9386E6E74146954517F5FF1F13051B
:10330C0025E241016FD0A04B23A6A18C82804111F4
:10331C0022C406C6854709446311F502834706009B
:10332C0001442384F18C03C741806378F7001705AF
:10333C0000001305C5F3EFF010152285B2402244AE
:10334C004101828085476301F50209C9094763027F
:10335C00E5020D476306E5020945828083C741807B
:10336C002380F500014582809387818C83C70700F9
:10337C00C5BF97F7FF1F83D747DB2390F500DDB759
:10338C001387C180035707002392E50017F7FF1F2F
:10339C00130707D98356A7020357A7032383F50006
:1033AC002390D5002391E50075BF411106C6953BCE
:1033BC0083C74180637AF5002382A1801705000042
:1033CC001305E5EAEFF0300CB24001454101828073
:1033DC0041677917630CE502411122C406C6854783
:1033EC002A84639AF50022852244B2409385C1A9B0
:1033FC0041016FD0A04789476396F5008545EFF0F2
:10340C00100375D1B2402244410182808280CC41AC
:10341C00411106C6328503C6150083C50500220678
:10342C004D8E42068D654186138875A2630C060F7E
:10343C006348C804138845A26306060B634AC80098
:10344C00938535A26309B60623900600294679A018
:10345C00138855A26308060B938565A2E316B6FE86
:10346C00C1451D4663ECE5064546198E63F3C7005E
:10347C003E862390C600977502009385A58489A883
:10348C00138895A26300060F634E060B1388A5A242
:10349C00630A060F938505A5E318B6FA99451D46F0
:1034AC0063EEE502198E63F3C7003E862390C600D7
:1034BC009385418131A89D451D4663E1E502214676
:1034CC00198E63F3C7003E862390C6009385C18D89
:1034DC00BA9597D0FF1FE780005C0146B240328559
:1034EC0041018280AD451D46E3EAE5FE3146198E69
:1034FC0063F3C7003E862390C60097750200938540
:10350C002580F9B7B1451D46E3EAE5FC3546198E31
:10351C0063F3C7003E862390C6009765020093852F
:10352C00257F7DB7C1451D46E3EAE5FA4546198E70
:10353C0063F3C7003E862390C6009765020093850F
:10354C00A57979B7C1451D46E3EAE5F84546198EDC
:10355C0063F3C7003E862390C600976502009385EF
:10356C00257CBDB7C1451D46E3EAE5F64546198EF7
:10357C0063F3C7003E862390C600976502009385CF
:10358C00E576B9B7B5451D46E3EAE5F43946198E3B
:10359C0063F3C7003E862390C600976502009385AF
:1035AC0065713DB797F6FF1F938646D04146CD45D2
:1035BC0017F5FF1F130585BC6FD0602041654111C5
:1035CC009385C1AA7D1506C622C426C24AC097F4AB
:1035DC00FF1F938464CEEFD0602997F6FF1F93866C
:1035EC00A6E24146D5452685EFD0601DCC4C2A89F4
:1035FC000945893B13870183035707001384C1AB2B
:10360C009387C18283D707002316E40003D7A41045
:10361C002312F40083D7A40C2314E40013874183F2
:10362C00035707002310F40083D7A40D231AE400DA
:10363C0003D7A4132311F400938541AD85470D45A1
:10364C002303F4002307F4002318E400230BF400F5
:10365C002315040023190400F531A2851145AD2171
:10366C00B24022444A8592440249410182808D67CE
:10367C009387D7A46319F6008D476399F50083C728
:10368C00618E2300F7002390060019A88947E39C5C
:10369C00F5FE83C7718E2300F70085472390F60053
:1036AC00014582808280938701909C4303C7418FA0
:1036BC0083C6318201E781473E85828003D60700AD
:1036CC006316A60003C66700E308D6FE7D171377C2
:1036DC00F70FA107C5B7B2862E86AA85176502001B
:1036EC001305056D6F5082230111930500030D45E1
:1036FC0006CEEF806001930500051145EF80C000F8
:10370C009305C0030545EF80200085471306F100A3
:10371C00854513055030A307F100EFC08171F240CD
:10372C00056182808547631AF5001166130686A928
:10373C00894503C5518F6F50500989476317F500B0
:10374C00894503C5518F6F5010338280854763982C
:10375C00F50019E22386B18E2382C190828001117B
:10376C0006CE22CC26CA4AC80947639FE50019E653
:10377C0003D5A18E2386F18EEF00E076F2406244F1
:10378C00D2444249056182808D47E399F5FE0A8651
:10379C00C14513050020EF60603D1765020013055D
:1037AC00655FEF50A2170144176902001309895F86
:1037BC009944B307810083C507004A850504EF507F
:1037CC00E215E31894FE176502001305255EEF5011
:1037DC00222919468A85138521D597D0FF1FE780AA
:1037EC00802B03C761978347510019CB93F7070CC4
:1037FC00938707F88D46B337F000630BD7003E87ED
:10380C00A388E1D485472388F1D4EF20F07EBDB79F
:10381C0013E70703F5B79387818F9C43011122CCE3
:10382C0006CE2E8481CB9C4791C78297F24062448E
:10383C00056182806C0013057040EFA0913F324609
:10384C0081452285EFB04101D5B701119397050150
:10385C0026CA06CE22CC4AC84EC652C4C187AE84F4
:10386C0063D7070803C5518FEF50A0132A8439C9B9
:10387C00034705009307000D6313F70483472500E6
:10388C004547638BE7046547639BE70217650200B6
:10389C001305C54CEF508208130954009309B4006A
:1038AC00176A0200130ACA4C8345090052850509A0
:1038BC00EF50C206E39A29FF2945EF50220A2285D0
:1038CC00EF5000022165258DF2406244D2444249FA
:1038DC00B249224A05618280034665008345750022
:1038EC001765020013054549EF504203C9BF93F712
:1038FC00150085C317F6FF1F130686B297F5FF1F39
:10390C00938545B103C5518FEFC0011F13C514003A
:10391C0065BF93F725000145C5DB413C11661306D5
:10392C0086A9894503C5518FEF50206A13C5240021
:10393C0061BF797126D24ECE06D622D44AD052CC53
:10394C009147AA84AE896314F50483D7A5001306A6
:10395C00E1008545130550302395F18E23070100B6
:10396C002386018EEFC0E14C9387818F9C4391C7D6
:10397C00DC4781C7CE8526858297B250225423A876
:10398C00918E02599254F249624A456182801387A2
:10399C00018F1843E31AF7FC854503D5A18E0D3C26
:1039AC00854503D5A18E712BC16703DAA18EF9175A
:1039BC00631BFA0205449305E1001305504123866D
:1039CC00018EA381818223070100EFA091268347FA
:1039DC00E100B1E303C741909147E317F7F82933AE
:1039EC002382019051B79387019003A9070003C468
:1039FC00418F69D00355290011C99305E100EFB03F
:103A0C00E07F09C54C455285EFC050667D14137498
:103A1C00F40F2109F9BF9387C18F9C4383C74700DB
:103A2C00898BCDDB9305000A0D45EF70F04D9305A6
:103A3C00000A1145EF70504D81450545EF70D04C93
:103A4C001306E10085451305503023078100EFC0B4
:103A5C00413E49B7011117050000130545DF06CE9D
:103A6C0022CCEF50103E1384518F85471306F10082
:103A7C0085452300A40013054041A307F100EFB0D6
:103A8C0061047D55EFA070147D55EFC0105B193E9D
:103A9C00EFF0DF840521170500001305E5C8EFF0F2
:103AAC00BF8617050000130525C01D29034504001A
:103ABC008545EF506031F24062440561828023AC51
:103ACC00B18E23AEA18E828023A0B190238AA18EC9
:103ADC0082809387018F9C43797106D622D426D29B
:103AEC004AD04ECE52CC1147639BE70483C7C18E9C
:103AFC00414481CF938701908043B284B68983C7B8
:103B0C00418F03C7318299EB55442285B250225420
:103B1C0092540259F249624A4561828083464400BC
:103B2C00639AA600834654006396B60083466400ED
:103B3C006380E606FD1793F7F70F2104E9B70947F1
:103B4C004144E384E7FC2C0013055041230401009D
:103B5C00EFA0310E834781008DCB930500020D45FC
:103B6C00EF70903A930500031145EF70F0399545CD
:103B7C000545EF7070398547300085451305503089
:103B8C002304F100EFC0E12A49B7B93E4144B5BF67
:103B9C000355240093056100EFB0406635D54C45C4
:103BAC0003D5A18EEFB02000058939DD13990401EE
:103BBC0013590901014781464A86ED4503D5A18E6B
:103BCC00035A0400EFA030382AC64D441DDD26866A
:103BDC00CE85231441012315210197D0FF1FE780C7
:103BEC0080EB01462C0003D5A18EEFB0B0582A848F
:103BFC00E30D05F0ED452800EFA0B04C39B7C841F6
:103C0C00011122CC06CE3284034615000345050073
:103C1C002206498E19CB0D681308B8A42D456309EB
:103C2C000607F2406244056182800D651308D5A435
:103C3C0063000603130825A2630C060175781308AC
:103C4C00E85C3298420813580801854863EE080373
:103C5C0003D5A50036C632C4B934B24615C1938714
:103C6C00818F9C4322468345550003A30700A287FE
:103C7C006244F24003454500368785460561028360
:103C8C0023900600014571BF1308B5A46317060302
:103C9C0003D681821D45E376C7F8198E63D3C7001E
:103CAC003E86CC452390C60042064182BA952285B9
:103CBC0097D0FF1FE78020DEF1B79307A5A4631808
:103CCC00F60091472390F6001146CC45CDB79307EB
:103CDC0085906317F60089472390F6000946F5B7DF
:103CEC009307E5A4631AF600DC452390160183C7FD
:103CFC0007002300F40079B713057590E314A6F8B8
:103D0C00D9BF011122CC06CE26CA4AC82317D1002E
:103D1C002D4431EBDC412E89B28403C4170083C7D8
:103D2C00070022045D8C8D679386D7A46306D400AC
:103D3C00938627A36310D4040355A900EFF0BF9614
:103D4C0019E101440DA09387818F9C438345550055
:103D5C000345450003A807002286A6871307E10048
:103D6C00814602982A842285F2406244D244424918
:103D7C00056182809386C7A46314D4028357E10043
:103D8C0005473544E391E7FE03450600130400089C
:103D9C00E3EBA7FC9387818F9C43DC43829755B759
:103DAC0093862790631AD4028356E1008547EFA0CF
:103DBC00D0642A844DF9938701908356A9009C43C3
:103DCC0003C7418F3DDF03D627006302D6047D175E
:103DDC001377F70FA107FDB79387E7A4E313F4F666
:103DEC008357E10005473544E39FE7F6034506009A
:103DFC0013040008E3E9A7F6DC452380A7009387AA
:103E0C00818F9C433335A0000905DC4341BF1387E8
:103E1C00818F184303C5470083C5570083C714001F
:103E2C000328070003C70400A2078946D98FC207DD
:103E3C00C18705476383E7008D460D66A687130788
:103E4C00E10013062690029839BF0145828025E3D4
:103E5C0003A84500AE888347180003480800A20752
:103E6C00B3E707010D68930EF8A4639AD703914743
:103E7C003548639FF60203A5C8004111B28511466F
:103E8C0006C697D0FF1FE78000C1938701919C4322
:103E9C0005458297B24001484285410182809308D2
:103EAC00289029486396170185476FA010552D4817
:103EBC0042858280416541119385C1AD7D1506C651
:103ECC00EFC0D01AB24097E6FF1F9386265C41469E
:103EDC00994517E5FF1F1305655541016FC0300E5D
:103EEC0023A8A190828001119385C1AD22CC06CE6E
:103EFC002A84EFA0504B058929C10147814605460C
:103F0C00ED452285EFA030042AC605C997E7FF1FAF
:103F1C009387C75183D7A70501462C002314F100C2
:103F2C0085472315F100230005002285EFB090246E
:103F3C0009C5ED452800EFA0D018F2406244056198
:103F4C00828041677917630CE502411122C406C6D1
:103F5C0085472A84639AF50022852244B2409385D2
:103F6C00C1AD41016FC0901089476396F50085453E
:103F7C00EFE0F04B75D1B240224441018280828047
:103F8C0011456FE04FDA411193962500AA852D4516
:103F9C0006C697C0FF1FE7800071B2400145410182
:103FAC008280011122CC06CE3714004026CA4AC8A2
:103FBC004EC652C483447405034AB4058349840530
:103FCC0003499405EFE0EFAE8347A40593F4F40F97
:103FDC00137AFA0F93E71700230DF40493F9F90FF2
:103FEC001379F90FB717004003C7A705058B6DFFB1
:103FFC0003D5C705A38D4705238C3705A38C27054F
:10400C00A38B9704F2406244D2444249B249224AFB
:10401C000561828041119397050122C406C6C187B0
:10402C002E8463DD0700EF40D01719C1EF40500B11
:10403C002165218DB24022444101828093F7150005
:10404C0013C51500E5FB9397250163D00702EF50CC
:10405C00115D3D3737F60200130606E0896503C58E
:10406C008191EF4090760965E9B793971501014569
:10407C00E3D207FC17650200130545DAEF40521E28
:10408C0013060064916503C58191EF4010741165AE
:10409C004DB72D71232A9110FD74E98C232C8110BE
:1040AC0023282111232631112A84AE8932899306C3
:1040BC0000100A86A6852D45232E111097C0FF1FD0
:1040CC00E780605E1315440151810A05139629009F
:1040DC00CA850A9597D0FF1FE780E09BA685856669
:1040EC000146254597C0FF1FE780E05B0A86A68541
:1040FC0093060010294597C0FF1FE780C05A832004
:10410C00C111032481118324411103290111832935
:10411C00C11015618280B7F7070003C70701411171
:10412C0006C622C426C24AC0A547631AF7009537B3
:10413C00B2402244924402490145410182801394C9
:10414C002500AA843289A286AA850146254597C0F6
:10415C00FF1FE7804055A2864A86A685294597C051
:10416C00FF1FE7804054E9B75D714946976502002F
:10417C00938545C6176502001305C54186C697D0C1
:10418C00FF1FE780809E01E9176502001305C5C576
:10419C00EF40120D01A0B7F600E0795798CAFD5711
:1041AC00DCCA0567B7E700E023A0E7101306F002AE
:1041BC0090C223A0E7180100010017D7FF1F1307B7
:1041CC00E7E823AAE1904157A38AE74013060004CD
:1041DC0081450A8597D0FF1FE780009397F7FF1F53
:1041EC00938747F73EC08967938707802312F100B6
:1041FC009D673EC4B7070105938707103EC693071A
:10420C0040062318F10085472309F10097070000A9
:10421C009387A7D73EDA97070000938707F03EDC19
:10422C008567938757D1231AF10097F7FFFF938780
:10423C0047D53ED0970700009387E7D63ED4970723
:10424C000000938727D43ED60A879777020093877E
:10425C006790977602009386868F03C65700FD17EA
:10426C000507A30BC700E39AD7FE0A85EF50204140
:10427C00AA8501C917650200130545B8EF40026A0B
:10428C0001A0B64061618280411117050000130541
:10429C00A5D806C622C4EF50C03A138481912300DE
:1042AC00A4001928034504002244B240130600322E
:1042BC00896541016F407051797106D613078008EA
:1042CC00F337078093F787083EC201000100B71748
:1042DC000040930570052380B704130680FA2380F1
:1042EC00C7040100010083C6F70293F6A60FA3874B
:1042FC00D702238007049246F3A606800100010032
:10430C0073370780137787083AC4010001002380B4
:10431C00B7042380C7040100010003C7F702136729
:10432C002700A387E70223800704A247F3A707808F
:10433C00010001000545EFD03FFD99318147014750
:10434C008146054685451305407EEFE0CF80680029
:10435C005146814597C0FF1FE780007BB707C0A877
:10436C003EC8B787E803938707D03ECA680097C753
:10437C00FF1F938707033EC6EF506064B250456140
:10438C008280011126CA4EC6B284AE89130600047F
:10439C00814506CE22CC4AC82A843689EFD03FE329
:1043AC009307000D2311F400232434014A858299CC
:1043BC00835724003E058588C607C583C98F717550
:1043CC007D15BA04E98FC58F230224012311F40053
:1043DC00F2406244D2444249B249056182808A0566
:1043EC00AA95D0C58280938701929843BA8791E7AA
:1043FC0058DD23A0A192014582806384A700DC5F75
:10440C00FDB77D55828001119387019222CC8043A8
:10441C0026CA4AC8F17421694EC652C456C25AC043
:10442C0006CE9384F47F094A7D19994A9769020054
:10443C009389099F130B007D19E8F2406244D24422
:10444C004249B249224A924A024B056182801C447D
:10445C000345440082978357240093F7077091C754
:10446C008357040085072310F40018408357240059
:10447C009356F7016301D5026D8305071D8B9316C7
:10448C00B700E58FD58F2311F4006379EA003E0560
:10449C00B3F72701C98FE58F2311F4001C4013D704
:1044AC0087011D8B63EFEA160A074E9718434E9748
:1044BC0002870357240093D6E701858AFD8313777F
:1044CC00F7F06391D7025C442311E40099C3228571
:1044DC0082971840B707F0F8F98F37070101D98F89
:1044EC001CC029A01367070D2311E400405CA9B779
:1044FC0013D7E701058BFD836385E70283572400FF
:10450C0093F7F7F093E707012311F4001C4899C3C4
:10451C00228582971840B707FFF8F98F37070002FA
:10452C007DBF035704009307800CE3F1E7FC83572E
:10453C00240093F7F7F093E707052311F4001C50C0
:10454C0099C3228582978357240093F7F78F93E7BB
:10455C0007502311F40059BF13D7E70193D6F70185
:10456C00058B639CE6028357240093F7F7F0231125
:10457C00F4005C4499C322858297835724008507F5
:10458C0013F7F70083572400C19BD98F2311F40034
:10459C005C48A9DF2285829791BF0357240085468A
:1045AC001376F7006313D602035604009306C00378
:1045BC0063FDC6001377F7F0136707032311E400BC
:1045CC001C4CA5C322858297A9A8C183BD8B054726
:1045DC00E37EF7F00357040093074006E3F8E7F097
:1045EC008357240093F7F7F093E707032311F400A4
:1045FC00C1BF13D7E701058BFD836389E70283579E
:10460C00240093F7F7F093E707012311F4001C48FB
:10461C0099C322858297035704009307B003E3FBE9
:10462C00E7EE8357240093F7F78F25B70357040061
:10463C009307C003E3FCE7EAEDB70357240093D6D6
:10464C00E701858AFD831377F7F06391D7041C5C2F
:10465C001367070B2311E40099C3228582978357B4
:10466C000400E375FBE88357240093F7F7F093E716
:10467C0007082311F4005C5499C322858297835751
:10468C00240093F7F78F93E70760E1B513670701F1
:10469C002311E4001C4835B713D7E701058BFD83C4
:1046AC00E386E7E48357240093F7F7F093E70701D9
:1046BC002311F4001C4899C3228582978357240048
:1046CC0093F7F7F093E707092311F4001C58D5BDB5
:1046DC0041118145414506C6EFE0AFEEB240894538
:1046EC00014541016FD03FB9B7170040238C070437
:1046FC006FD07FBF411106C6C53F99473305F50200
:10470C00B24041012D8542054181828085453705A6
:10471C0040006FE06FF5B717004003A5470C5981B7
:10472C0005898280411122C4371400408327C40AB2
:10473C0006C68D4593E707402326F40A130500406F
:10474C00EFE02FE881450145EFE01F8B0565B727AA
:10475C0000401307059623A6E74003C7074013053F
:10476C0005808545136787002380E74003C7074012
:10477C001377B70F2380E74023A8074003C70740F0
:10478C00136747002380E7408327C40AC98F232679
:10479C00F40AEFE00FE30D45EFE0BF873737004039
:1047AC008347078093E747002300F780B2402244F9
:1047BC0023A201924101828085679387079663F358
:1047CC00A7003E85B727004003C707401377B70FF4
:1047DC002380E74023A8A74003C70740136747007F
:1047EC002380E740828041114AC01389819283273C
:1047FC00090026C20D45850723A4F192B734004069
:10480C0022C406C603A48480EFE0BF8083C7048063
:10481C00014593E747002380F4800327090085476F
:10482C006308F700130580253304A4021355140004
:10483C00B240224492440249410182803D654111BB
:10484C008D451305050206C6EFE0AFD7B71700403C
:10485C0003A7870AAD6693860602558F23A4E70A41
:10486C0003A7C70AB2409166558F23A6E70A4101F8
:10487C008280238201949387C1AE23ACF18A938703
:10488C00C1BA23AEF18A9387C1C2411123A0F18C26
:10489C009387C1CA06C623A2F18CEFE04FFFB2404A
:1048AC00B7E700E03707400023A0E7104101828002
:1048BC00411122C406C603C441931DC80544228578
:1048CC00B2402244410182803307F50003460700C1
:1048DC0098423E972300C704850713F7F70FE3654B
:1048EC00B7FE85472E85238AF192EFE03F82C1BF48
:1048FC0081479386418CD5B7834535008D056F1064
:10490C000057011106CE22CC26CA4AC84EC652C444
:10491C00B787004003C767001377F70F937627001C
:10492C00E381060003C777009306000313770703A0
:10493C00630BD70203C7770091461377F703630223
:10494C00D72C63EBE6088546630CD7206307071862
:10495C008946630AD7228D466307D726B78700405E
:10496C0009472383E7003787004083477700E20736
:10497C00E18763D1077E930720FC2301F70293861E
:10498C00818B80428349740083476400A209B3E998
:10499C00F900239D319383471400238CF192034932
:1049AC00040013770906630F072C13770904631DA2
:1049BC0007261377090263090726F91793F7F70FF0
:1049CC0025476360F73A17570200130727478A07F2
:1049DC00BA979C43BA978287930620026304D71C2C
:1049EC0063EBE602930600026300D70693061002FF
:1049FC00E316D7F603C76702134707042383E702BE
:104A0C002389019203C767021377C70F1367270027
:104A1C002383E702A1B7930630026303D71C9306E6
:104A2C004002E31DD7F203C727031347070423896A
:104A3C00E702A38A019203C727031377C70F1367F3
:104A4C0027002389E70219BF03C781939546630B9F
:104A5C00D7069947630AF7008D47E301F7F0B7874C
:104A6C0000402380070285A89387A19303D40700F5
:104A7C0013070004BE846374870013040004938737
:104A8C00818B13890194884342048325090041805A
:104A9C002286EF30525D83D704009379F40F818F17
:104AAC00239DF192832709003E9423A08194B7871C
:104ABC0000402380370303C72702134707042381D1
:104ACC00E70269BD03C7370083C6A19313770708B4
:104ADC00558FA381E7000947DDB783C7870003C75C
:104AEC008193A547E31CF7E61384818B1C409755F3
:104AFC0002009385E54383C70700858B89E797659B
:104B0C0002009385A5F8175502001305A542EF3056
:104B1C00F2601C40975502009385854183C70700BE
:104B2C00898B89E797650200938545F61755020036
:104B3C0013054541EF30925E1C409755020093855A
:104B4C00253F83C70700918B89E797650200938502
:104B5C00E5F3175502001305E53FEF30325CFDBB62
:104B6C0003C7770013770704E30A07DE03C767025E
:104B7C00134707082383E70283C587009387C18BFC
:104B8C0088439D3BE1BB03C7770013770704E3071A
:104B9C0007DC03C7A702134707082385E70283C76F
:104BAC0087006DBB03C7A702134707042385E702E1
:104BBC00A389019203C7A7021377C70F13672700B6
:104BCC002385E70261BB03C7770013770704E3076C
:104BDC0007D803C7E702134707082387E702C1B7C3
:104BEC0003C7E702134707042387E702238A0192CE
:104BFC0003C7E7021377C70F136727002387E70262
:104C0C00B1BB03C7770013770704E30907D403C7C5
:104C1C002703134707082389E70251B79387C1AECF
:104C2C0083C73700238BF19262091359894181465E
:104C3C006352090283D7A193930600043E8763F461
:104C4C00F6001307000442074183998F9376F70F00
:104C5C00239DF192B78700402380D702130700FCF5
:104C6C0029A29387C1AE83C72700A38BF1926DBF96
:104C7C009387619383C707002386F1AE75B793873B
:104C8C007193CDBF2D47636EF70C175702001307B6
:104C9C00671D8A07BA979C43BA978287834734006B
:104CAC00034724009946A207D98F13D78700630EB8
:104CBC00D71863EFE60089466301D70C0D46630CE9
:104CCC00C71285476302F7049304F00F8147A9A02C
:104CDC00930710026303F70A930720026309F70A8C
:104CEC009D47E313F7FE1306700297550200938558
:104CFC00851A17D5FF1F1305457AEF30D23697D793
:104D0C00FF1F93876779B5A8975702009387471BB6
:104D1C0023A0F1948144C947C207C18363F43701CE
:104D2C00239DF1929387A19303D607009307000468
:104D3C0063F4C70013060004138A01949319060147
:104D4C0083250A0093D909014E862285EF30B231B2
:104D5C0003260A004E9623A0C1949307F00FE39507
:104D6C00F4ECB78700401307F0FC2381E702B78708
:104D7C00004009472383E700F1AE97570200938761
:104D8C00671123A0F19481449307900271B7834774
:104D9C00440099EB975702009387071E23A0F194C8
:104DAC008144930750078DBF0547639CE7009757D5
:104DBC0002009387E72323A0F194814493076004B6
:104DCC00A1BF0947639CE700975702009387C7264A
:104DDC0023A0F1948144930780023DBF0D47639F4C
:104DEC00E706975702009387A72723A0F1948144E5
:104DFC009307300215B793F7F70F05466385C70283
:104E0C0091CB638BD702E391E7EC97570200938722
:104E1C00670E3DA097670200938747D223A0F194B9
:104E2C0081449147D5BD975702009387A70E23A0C5
:104E3C00F1948144C147CDB59757020093878709F8
:104E4C0023A0F1948144F947C1BD97570200938781
:104E5C00670D23A0F1948144A9477DBD814493073C
:104E6C00F00F5DBD83472400239DF19275BB83C772
:104E7C00C1922300F40003D7A1938547E3F6E7DA48
:104E8C008547DDB7834724002386F1928547238825
:104E9C00F192EF20E05E49BB1377F901894763106B
:104EAC00F70A834744008D466382D70663EEF6000B
:104EBC008546638FD706E396E7EA3787004083473A
:104ECC00A70293F7370795A0130720086387E70419
:104EDC00130730086381E70213071008E393E7E830
:104EEC00378700408347670293F7C70B93E7270088
:104EFC002303F70215BB378700408347E70293F77C
:104F0C00C70B93E727002307F70239BB378700400D
:104F1C008347E70293F73707FDB73787004083478E
:104F2C00A70293F7C70B93E727002305F702EDB908
:104F3C00378700408347670293F7370755BFE31263
:104F4C0007E28347340003472400A207D98F0547A3
:104F5C00E39CE7CC83C7C19393F7E70F238EF192C1
:104F6C00E1B11377F90189476314F70A83475400B9
:104F7C0083464400A207D58F8D466380D70663E035
:104F8C00F6028546638DD706E39DE7DC3787004044
:104F9C008347A70293F7370793E7C70079B713073F
:104FAC0020086385E70413073008638FE7001307B5
:104FBC001008E398E7DA378700408347670293F7D6
:104FCC00C70B93E737002DB7378700408347E702BD
:104FDC0093F7C70B93E737003DB7378700408347FC
:104FEC00E70293F7370793E7C70031BF37870040D5
:104FFC008347A70293F7C70B93E737003DB7378773
:10500C0000408347670293F7370793E7C700CDB596
:10501C00E31907D48347340003472400A207D98F30
:10502C000547E393E7C083C7C19393E71700238E2B
:10503C00F19283C7119393F7E70FA388F192EDB622
:10504C00230004000DBD9375F9018947639FF50A90
:10505C002300040098428347570003464700A207E9
:10506C00D18F0D46638BC7046361F60205466384DA
:10507C00C7086386B7069C42A380070003D7A19399
:10508C008547E3F3E7BA8947C5B3930520086383E3
:10509C00B70493053008638BB70093051008E39CA5
:1050AC00B7FCB787004083C7670229A0B7870040C9
:1050BC0083C7E70293F7370401A8B787004083C77B
:1050CC00E702314693F7C708E397C7FA85472300F1
:1050DC00F70055B7B787004083C7A702E1BFB78772
:1050EC00004083C7A702B14593F7C708E395B7F80B
:1050FC002300C70049B73786004003466602B14516
:10510C001376C608E319B6F6D9B7B5F52300040033
:10511C0003C7C19319C398425DBF9C42238007000B
:10512C0099BF937617009DCEA38107000947238171
:10513C00E7022383E7022385E7022387E70205477B
:10514C002383E70023880192EF208033238601928A
:10515C00239D0192F2406244D2444249B249224A10
:10516C000561828093764700E38606C003C757002B
:10517C0083C71193118B1DCB93E72700238A0192D0
:10518C00A388F19283C601930547639DE6000D4702
:10519C00638AE70017550200130505DDEF30520C4A
:1051AC00EF20002EB78700401147E9B6F59BA38886
:1051BC00F192FDB703C50193828003C5119305815C
:1051CC000589828083C70193B9C3411122C426C2C9
:1051DC002A84AE847D46814517D5FF1F1305952E75
:1051EC0006C6EFC0DFFEA285268617D5FF1F130566
:1051FC00752DEF3042672244B24092449305000271
:10520C0017D5FF1F1305052C41016FF06FEA828043
:10521C00B787004023800700A380070037170040A2
:10522C008357A701C207C18393F7F7F3C207C18362
:10523C00231DF7008280797126D206D622D44AD05B
:10524C004ECE52CC03C88500A144137808026311DA
:10525C00080683C8050009482E848144639A080512
:10526C0003A84500AA89328A83471800034808001E
:10527C003689A207B3E70701C2070D68C187130877
:10528C0028906380070581440357A40097D7FF1F1C
:10529C0083D7E727631EF700938781949C4389CBC0
:1052AC000D473AC22316210152C44C004E858297F9
:1052BC00B2502254268502599254F249624A4561F1
:1052CC0082808547EF907013AA845DFD938781944B
:1052DC00984355DB83471A0083460A004C00A2070B
:1052EC00D58FB337F00085073EC24E85029769BF54
:1052FC00011126CA175502001305C5D8AE844AC839
:10530C004EC652C406CE22CCB289368AEF304275D4
:10531C0003C904008947631FF902DC4017550200DA
:10532C00130505D703C4170083C7070022045D8C3F
:10533C00EF30C25E42048D67418493872790631BD4
:10534C00F400CC4423102A0109464E8597B0FF1F68
:10535C00E7806074F2406244D2444249B249224A26
:10536C0001450561828041677917630CE5024111A3
:10537C0022C406C685472A84639AF50022852244F6
:10538C00B240938501D441016FB0404E894763967A
:10539C00F5008545EFD0B00975D1B24022444101EA
:1053AC0082808280411126C2AA844165938501D4F2
:1053BC007D1506C622C4EFB0604B1705000013051F
:1053CC00C5FAEFD0007E97D6FF1F9386A6194146EB
:1053DC00A14517D5FF1F1305E510EFB0403E2A84F9
:1053EC0019C517550200130565CBEF30626722858E
:1053FC00B240224423A491949244410182804111F1
:10540C00938501D406C6EF90007AB2407D15133512
:10541C00150041018280411122C42E84938501D450
:10542C0026C206C6AA84EF900078058915C197D7C5
:10543C00FF1F9387270B83D7A705A285B2402310A4
:10544C00F400224426859244014641016FA080520B
:10545C00B240224492444945410182808357250041
:10546C00035505003385A740420541818280AA87F8
:10547C0005C21307F6FFB376C700054599EA23A0CA
:10548C000700CCC32394C7002395E7000145828015
:10549C0005458280232005008280AA871145B5C767
:1054AC002DC683D6070003D787000D45369783D6C4
:1054BC002700158F4207418329CB0145B9C5835677
:1054CC0006006373D700BA86C206C1820147131562
:1054DC00070141816366D5002310D6000145828007
:1054EC003385E5008348050003D8A70003D52700C2
:1054FC00050733780501C84342952300150103D5F0
:10550C00270005052391A700D9B78280AA871145EA
:10551C00B1CF29CE83D6070003D72700158F83562A
:10552C000600420741836373D700BA86C206C18264
:10553C0009450DCF01476366D7002310D6000145FE
:10554C00828003D5070003D8A70033780501C84330
:10555C004295034805003385E50005072300050146
:10556C0003D5070005052390A700F1B7828029C554
:10557C000357050083572500998F3E87C207C183C7
:10558C006373F600328742074183814763E4E70087
:10559C0001458280835605000356A5008507758E4C
:1055AC005441B29683C606002380D500835605006D
:1055BC0085062310D500D9BF11458280411122C424
:1055CC0026C21306000A2A84AE8403C5F1948545CD
:1055DC0006C64AC0EF30B042EF1070378347B500B3
:1055EC002A8981CFA28517550200130565AE268640
:1055FC00EF30C026A6852285F1368347A90089C7DE
:10560C00A6852285EF10501CB240224492440249D8
:10561C000145410182800111B7A70408B7F50700C5
:10562C009387A75530008146E105194506CE3EC249
:10563C0002C4231601002307010097B0FF1FE78067
:10564C0080068345710013056100EF30801C230731
:10565C00A100AD4548009D37F2400561828093F76B
:10566C0015006381071E011122CC06CE26CA4AC83A
:10567C004EC683C7B1832E846386071AEF10302D74
:10568C00AA89EF00B0122A89EF20F04103C7190054
:10569C0097D4FF1F938444F0B9459377170003D731
:1056AC004400799B5D8F97D7FF1F2399E7EE83A763
:1056BC004900659BFD178D8B8607D98F17D7FF1F68
:1056CC00231EF7EC83C6A900DD9B858A8E06DD8E32
:1056DC0097D7FF1F2394D7EC03C7B900BD9A058B4E
:1056EC001207558F97D7FF1F239AE7EA83C7C90084
:1056FC001377F7F98D8B9607D98F17D7FF1F231FB9
:10570C00F7E883C6890093F7F7F7858A9E06DD8E46
:10571C0097D7FF1F2394D7E803C7D900058B93179E
:10572C00870013F7F6EF5D8F97D7FF1F2398E7E6F7
:10573C0083C7E900858B939697009377F7DFD58F16
:10574C0017D7FF1F231CF7E403C7F900FD769386D8
:10575C00F63F0D8B2A07F58FD98F17D7FF1F231F05
:10576C00F7E2034705009377170003C76400799BA2
:10577C005D8F97D7FF1F2384E7E283C72901858BB1
:10578C00939617009377D7FFD58F17D7FF1F230852
:10579C00F7E003471500ED9B2685058B0A07D98F8B
:1057AC0017D7FF1F230DF7DE8357C90017D7FF1F2D
:1057BC00A307F7DEA18317D7FF1F2303F7DE835759
:1057CC00090117D7FF1FA30DF7DCA18317D7FF1F04
:1057DC002309F7DC03C7B40083C7C400A207D98F21
:1057EC008507C207C18317D7FF1FA30CF7DAA18364
:1057FC0017D7FF1F2308F7DAEF30C003EF1030156F
:10580C008347B5002A8989C7B9452685EFF09F9B48
:10581C008347A90081CBB94517D5FF1F1305C5D701
:10582C00EF10300613060032854503C5F194EF30B6
:10583C00C07913451400F2406244D2444249B24943
:10584C00056182800145828093870189984301110B
:10585C0083D747003AC42305A1008D451305A10049
:10586C0006CE2316F100EF20D07AA306A1009945AD
:10587C002800A933F24005618280938701899843FF
:10588C0083D7470001113AC42316F1002305A10068
:10589C002306B1001305A1008D4506CEEF207077CD
:1058AC00A306A10099452800113BF24005618280B6
:1058BC0001112546974502009385C53A480006CE4E
:1058CC00EF20727AEF00806E835705010357C500F5
:1058DC009945130561002314E1002315F100EF2015
:1058EC0050732306A100A5454800C939F240056153
:1058FC0082805D7186C6A2C4A6C2CAC04EDE930762
:10590C0040026302F53C2A8463EAA710A1476306B0
:10591C00F52C63E2A7049147630DF52863E2A70217
:10592C0089476308F52263EFA7248547630BF51EAF
:10593C000545B640264496440649F2596161828079
:10594C0099476304F52863F9A726EF1050008345A7
:10595C00C5001D4591A4B1476303F52E63EBA70663
:10596C00A9476306F52C63F3A72AB7A70B0F9387F8
:10597C00A7553ECEB737F0F1938797113ED0FD7700
:10598C009387273FB7F507008146231301022312A3
:10599C00F1025008D157E10519452303F1022314F4
:1059AC000102231501022316010297B0FF1FE780A5
:1059BC0080CF19464C0813057102EF20D26A83453B
:1059CC00F1011305E101EF20D064A306A102C94542
:1059DC00ADAA930710026308F52A63EFA700B54739
:1059EC00E318F5F403C40500EF106076894763F300
:1059FC008728814535454DA293072002630AF52A75
:105A0C0093073002E316F5F2EF1060748347D5006C
:105A1C006382072A8D4513053002BDAA93075004F3
:105A2C006301F54063E7A70893071004630EF53490
:105A3C0063EDA704930760026309F52C6368F52AEC
:105A4C0093077002E316F5EE938781899C43A94571
:105A5C001305E1013ECE97D7FF1F938727B803D7D5
:105A6C0027002310E10203D747002311E10203D7DB
:105A7C0067002312E10283D787002313F102EF2082
:105A8C0050592304A102B545C9A093073004630AF9
:105A9C00F536B28463FBA7308547631BF62E03C42F
:105AAC000500EF20A07F1C49228582971305400436
:105ABC00FDA89307D00E6302F53A63EAA702930799
:105ACC007004630EF530636DF53693078004E311B3
